:020000040800F2
:1000000008050020D9000008E1140008F5130008D5
:1000100000000000000000000000000000000000E0
:10002000000000000000000000000000E5140008CF
:100030000000000000000000E3140008E7140008BE
:10004000EB00000800000000EB000008EB000008D7
:10005000EB000008EB000008EB000008EB000008D4
:100060000000000069010008EB000008EB00000838
:10007000EB000008EB000008EB00000800000000A7
:10008000EB0000080000000000000000EB0000088A
:1000900000000000EB000008EB000008EB00000887
:1000A000EB000008EB000008EB00000891190008C5
:1000B000EB0000080000000000000000000000004D
:1000C0000448854600F03EF8004800474D1A0008F5
:1000D000C046C04608050020044880470448004741
:1000E000FEE7FEE7FEE7FEE7FEE7FEE7571500083E
:1000F000C100000830B50B46014600202022012433
:1001000009E00D46D5409D4205D31D469540491B4B
:100110002546954040191546521E002DF1DC30BD94
:10012000D2B201E00270401C491EFBD2704700228F
:10013000F6E710B513460A4604461946FFF7F0FFE6
:10014000204610BD064C0125064E05E0E36807CCAD
:100150002B430C3C98471034B442F7D3FFF7B4FF5D
:10016000301B0008501B000810B5024800F0AAF828
:1001700010BD0000A800002010B50446006C09491D
:100180008008800040186064207814210838FFF748
:10019000B1FF04498031A164C106C90E0120884025
:1001A000E06410BD000802400179084B8906890E01
:1001B0008A00D2180265054A4432491E42658A0700
:1001C000920F01219140816570470000FC080240B8
:1001D00072B6FEE7F0B5002808D0014620314A7912
:1001E000022A05D00422C263002008710120F0BD5C
:1001F000026813680E24A3431360426C1468FF2343
:1002000001339C431460026814686408640014603D
:100210000C4A5568066C1C24264001242746B7402A
:100220003D435560826CC56C5560026D002A05D057
:1002300015689D431560826D406D42604C710020D1
:100240000871F0BD00000240F8B5002402462032DB
:100250005179022903D00421C16301242DE00168F2
:100260000B680E25AB430B6001680B685B085B00F5
:100270000B60416C0B68FF250135AB430B601049E7
:100280004D68066C1C231E4001231F46B7403D43AA
:100290004D60816CC56C4D60016D002906D00E6803
:1002A0001D02AE430E60416D856D4D60537100219E
:1002B0001171816B002900D088472046F8BD0000ED
:1002C00000000240F0B42C490C6802681368056C09
:1002D0001C273D400426AE40264211D05E070FD5B4
:1002E00013689B0603D4146804239C4314604B6872
:1002F000046C04223C40A24013434B60016B1CE0A1
:100300000227AF40064627402036002F19D09F070E
:1003100017D513689B0605D413680A24A3431360FA
:10032000012272714B68046C1C2214400222A2400C
:1003300013434B6000213171C16A00291AD0F0BC0F
:1003400008470827AF40274214D01B0712D513686F
:100350000E24A34313604B68046C1C22144001223A
:100360001546A5402B434B60C26372710021317169
:10037000416BE2E7F0BC70470000024070B504003A
:100380003FD02548256814212818FFF7B3FE8000C8
:100390002064022026462036707128681F490840D4
:1003A0002860E168A0686269084321691143084335
:1003B000A1690843E1690843216A084321680A6882
:1003C000104308602046FFF7D7FE0121A06889038B
:1003D0000025884200D165602079616C8006800E1E
:1003E0000860A06CE16C41606068401E03280AD878
:1003F0002046FFF7D9FE206D0560606DA16D41605C
:1004000004E0012070BD25656565A565E5630120F3
:1004100070713571002070BDF8FFFDBF0F80FFFFC8
:1004200070B5044600F0C2F80546601C02D00448CE
:100430000078241800F0BAF8401BA042FAD370BD2F
:1004400000000020F0B5002303249AE02A4601258D
:100450009D402A407ED00E79B607B60F012E01D0FE
:10046000022E16D186682746B4465E00B646B740CF
:100470006646BE43B446CF687646B74066463743C5
:1004800087604668AE430D79ED06ED0F9D4035431C
:1004900045600D79ED43AD0708D0C5685F0026467D
:1004A000BE40B5438E68BE402E43C6600D79AD0791
:1004B000AD0F022D0ED1DD08AD002D18AC462D6A12
:1004C0005E07F60E0F27B740BD430F69B7402F43B5
:1004D00065462F6205685F002646BE40B5430E792B
:1004E000B607B60FBE402E4306604D68AD03AD0F94
:1004F00046D09E08264DB6007519AC462D6E9E0757
:10050000F60E0F27B740BD4305273F07B84201D17C
:1005100000270FE01F4FB84201D101270AE01E4F0C
:10052000B84201D1022705E01C4FB84201D1032790
:1005300000E00527B7402F43154D664637662D6806
:100540004E689543F60200D51543114F3D607D6816
:10055000954300E014E04E68B60200D515437D6077
:100560000B4D80356E684F689643BF0300D5164328
:100570006E602E684F689643FF0300D516432E60C9
:100580005B1C0A681546DA4000D05FE7F0BD00004A
:10059000001802400004005000080050000C0050F9
:1005A000002A01D0816170478162704701488068EC
:1005B0007047000000000020024881680278891816
:1005C000816070470000002010B5084800240168D1
:1005D000821511430160032000F00AF8002801D0C1
:1005E000012401E000F028F8204610BD0020024060
:1005F00070B50F4E002431780546002915D07D20B6
:10060000C000FFF777FD01460A480068FFF772FD5A
:1006100000F0F6FB002808D1042D06D2002229465E
:10062000401E00F02BF8756000E00124204670BDEC
:10063000000000200C00002008B5094801680122D4
:100640001143016000681040009005484038C26BBB
:1006500001040A43C263C06B0840009008BD00005B
:1006600040100240002805DBC106C90E0120884069
:10067000014908607047000000E100E010B501F09A
:1006800099F910BD10B50F4C216803225202914315
:1006900001432160C11FFF39FA390ED10A480621F2
:1006A000006848430949FFF725FD401C02E0002887
:1006B00005D0401E61694905F9D4002010BD032012
:1006C00010BD0000007000400C00002040420F00F0
:1006D000F8B50446006800264D4D800358D54C48B7
:1006E00000274038C06BC00009D449484038C26B6D
:1006F00001040A43C263C06B0840012700904548CB
:100700000168821511430160FFF750FF009005E07A
:10071000FFF74CFF0099401A022825D83D48006891
:10072000C005F5D5E8690321090208400FD06169C9
:1007300081420CD0E86903210902EA69884301215A
:1007400009040A43EA61EA698A43EA61E861C00789
:100750000FD0FFF72BFF009008E0FFF727FF00996D
:10076000411A2D48814201D9032609E0E869800732
:10077000F3D5E86903210902884361690843E86108
:10078000002F05D022484038C26B01048A43C2635F
:100790002078C00705D06869616880088000084338
:1007A00068612078800606D56869032109038843BB
:1007B000A168084368612088400411D568692169EF
:1007C0008000800808436861012120698907884208
:1007D00006D10F484038C168012212041143C1609C
:1007E0002088000512D56869032189038843E168E0
:1007F000084368610121E0688903884206D1044802
:100800004038C168012212041143C1603046F8BD6E
:10081000401002400070004088130000F8B50F46F9
:10082000060043D04D4D28684007400FB84213D210
:100830002868C008C00038432860FFF7B7FE0446A8
:1008400005E0FFF7B3FE011B4548814261D82868E7
:100850004007400FB842F4D13068424C81070DD5B3
:10086000400704D5A068072109030843A060A068D9
:100870000F2109028843B1680843A0603078C0079F
:1008800032D0706801280AD002280BD000280FD07F
:100890003449403103280ED0C969890704E0216832
:1008A000890301E021688901002906DB0120F8BDE8
:1008B00021684905F8E7096AEFE7A168C908C90096
:1008C0000143A160FFF772FE009006E0FFF76EFEA5
:1008D0000099411A224881421BD8A068382108405B
:1008E0007168C9008842F1D128684007400FB842BA
:1008F00017D91A480168C908C90039430160FFF7D0
:1009000055FE054607E0FFF751FE411B14488142A2
:1009100001D90320F8BD114800684007400FB842D4
:10092000F1D13078400706D5A06807210903884334
:10093000F1680843A06000F031F8A1683C22890901
:100940001140094A515CC906C90EC84007490860F0
:1009500007480068FFF74CFEF8BD00000020024089
:100960008813000000100240D01A00080C0000207C
:10097000040000200648074900688968064A4904BF
:10098000490F8900515CC906C90EC8407047000074
:100990000C00002000100240101B000810B5204C75
:1009A000A068204A8006400F16D0A0688006410F3C
:1009B000501001290FD0A1688906490F022912D0D1
:1009C000A0688006400F042823D0A0688006400F4E
:1009D000032821D0002010BD206801218004400F91
:1009E0008140104612E0E1688B07E1689B0F4906E1
:1009F000490F491C032B00D01046FFF77BFBE16831
:100A00004904490E4843E168490F491CFFF772FB4E
:100A100010BD0120C00310BD7D20000210BD0000EC
:100A2000001002400024F400F8B504007ED02078C5
:100A30003827C007E94D002846D0A868E968384043
:100A40008907890F102802D008280BD001E003295C
:100A500008D001206268000482420AD1296801435B
:100A6000296015E0286880032ED560680028DDD055
:100A70002AE0052301211B0489049A422A6802D135
:100A80000A432A60EAE782432A602868884328608C
:100A9000606800280CD0FFF789FD064604E0FFF7E8
:100AA00085FD801B642873D828688003F7D50BE088
:100AB000FFF77CFD064604E0FFF778FD801B642805
:100AC000F1D828688003F7D42078800769D5A86812
:100AD000E96838408A070721920FC902102802D01E
:100AE000002813D001E0022A10D0E068002846D088
:100AF000286888432169084328602868FF2101315C
:100B000008432860FFF752FD06462CE02A6852058C
:100B100002D5E268002A89D06A687F231B029A43C3
:100B200063691B021A436A60002800E08DE00ED161
:100B300028688843216908432860286801218004C7
:100B4000400F8140A648FFF7D5FAA6490860A6489D
:100B50000068FFF74DFD002877D122E0FFF726FD62
:100B6000801B02289FD828684005F7D568687F2138
:100B700009028843616909020843686011E0296835
:100B8000FF20013081432960FFF710FD064605E094
:100B900098E0FFF70BFD801B022884D828684005E9
:100BA000F7D42078914E00072ED5A8688006400F14
:100BB00003280AD0A0690028306A16D00121084312
:100BC0003062FFF7F3FC07460BE0306A80071BD565
:100BD000A06900289FD017E0FFF7E8FCC01B02289F
:100BE00070D8306A8007F7D50EE0400840003062C8
:100BF000FFF7DCFC074604E0FFF7D8FCC01B022827
:100C000060D8306A8007F7D4207840076CD5A86890
:100C100000278006400F042818D0E86BC00008D4D5
:100C2000E96B012000070143E963E96B01400127FB
:100C300000916F480168C90519D4016882151143F4
:100C40000160FFF7B3FC00900DE083E0F0698007DE
:100C50004AD5A06800287DD046E0FFF7A7FC0099A0
:100C6000401A02282ED862480068C005F5D5A16850
:100C7000012910D004200529F16911D04908490043
:100C8000F161F1698143F161A068002816D0FFF796
:100C90008DFC00900EE0F06901210843F061F3E75C
:100CA0000143F161F7E7FFF781FC0099411A5148D0
:100CB000814265D8F0698007F5D50EE0FFF776FC34
:100CC000009007E05CE0FFF771FC0099411A494889
:100CD000814255D8F0698007F5D4002F04D0E96B24
:100CE000012000078143E963E069002873D0A96807
:100CF0008906490F02294DD00126360602282868A8
:100D000005D0B0432860FFF751FC04463AE0B043F9
:100D10002860FFF74BFC074604E0FFF747FCC01BC9
:100D200002282DD828688001F7D4616A206AA26A57
:100D30000843E16A120211430843216B0843E96842
:100D40002D4A11400843E860286830432860E8686D
:100D5000012100E03DE009070843E860FFF726FCB9
:100D6000044604E0FFF722FC001B022808D828688C
:100D70008001F7D52FE0FFF719FC001B022801D9ED
:100D80000320F8BD28688001F5D4E8681B490840B5
:100D9000E86020E00128F4D0E868226A8107890F22
:100DA000914216D17021626A0140914211D17F2196
:100DB000A26A09020140120291420AD11F2149048C
:100DC000E26A0140914204D1400F216B4007884202
:100DD00001D00120F8BD0020F8BD00000010024045
:100DE0000024F4000C000020040000204010024009
:100DF00000700040881300008C80C11FFCFFFEEFD4
:100E0000094910B5401E884201D9012010BD074C88
:100E100060610321081F00F0CDFD0020A0610720C4
:100E20002061002010BD0000FFFFFF0000E000E097
:100E300010B5014680310A79012A15D001220A71C4
:100E400024228A60026813681468640864001460CD
:100E5000012252079343002242660068036020206B
:100E600088600A71104610BD022010BD704770479F
:100E700070B5044605468034207901281AD0012037
:100E800020712420A0602868066802685208520079
:100E900002602868826807235B069A430A438260DF
:100EA000284600F059FB286806602020A06000203A
:100EB000207170BD022070BD70B5044605468034B7
:100EC0002079012819D0012020712420A0602868F1
:100ED0000668026852085200026028688268D200E0
:100EE000D2080A438260284600F036FB2868066074
:100EF0002020A0600020207170BD022070BD7047CE
:100F000070477047F8B503680446D96918689A684D
:100F1000B44D0E462E4025468035002E75D0B24E7B
:100F2000B24F1640074037436ED0CF0706D0C705F3
:100F300004D501271F622B693B432B618B0708D522
:100F4000D30706D0276802233B622B6904273B4363
:100F50002B614B0708D5D30706D0276804233B62D3
:100F60002B6902273B432B610B0709D52023034044
:100F7000334305D02668082333622E691E432E6151
:100F80000B0509D5430107D501232668DB0233622F
:100F90002B69202633432B612B69002B42D0890615
:100FA0000AD520210840C9050A40104304D0616FCA
:100FB000002901D0204688472869216889684906A8
:100FC00002D42821084232D0204600F0B3FB216829
:100FD0008868400627D5EFF31080012282F310883D
:100FE0008B68402293438B6080F310882868002828
:100FF00019D07F4981632868FFF726F9002811D0AE
:101000002868816B0DE000E017E08E0615D50127FA
:1010100020263F07064017403E430ED0616FB5E0E3
:1010200020468847F8BD2046FFF76BFFF8BD2046F5
:10103000FFF767FF00202861F8BDE66E012E7DD125
:10104000CE067BD5C60679D510221A622368986829
:10105000264640064036002849DA29680868406874
:101060000004000CE8D0B78B8742E5D9F08308680C
:101070000068800634D4EFF31080012181F31088DA
:1010800019681701B943196080F31088EFF31080D5
:10109000012181F3108821688B685B085B008B60FD
:1010A00080F31088EFF31080012181F3108821680C
:1010B0008B684027BB438B6080F310882020E8605A
:1010C0000020E066EFF31080012181F31088216891
:1010D0000B6893430B6080F310882868FFF77AF859
:1010E00002202067B08BF18B401A81B235E0B08BC3
:1010F000F18B401A81B2F08B00289DD000299BD043
:10110000EFF31080012686F310881E68FF27213731
:10111000BE431E6080F31088EFF31080012383F339
:10112000108823689E68304FFF433E409E6080F3E6
:1011300010882020E8600020E06600E011E0606791
:10114000EFF31080012383F3108823681D68954313
:101150001D6080F31088022020672046FFF786FE7E
:10116000F8BDCE0208D5560206D50120000518624A
:101170002046FFF7C5FEF8BD0E060BD501278026D9
:10118000FF0506403A40164304D0A16F002900D065
:1011900046E7F8BD4A0614D5420612D52046EFF3BD
:1011A0001081012282F310881A684024A2431A6039
:1011B00081F310882021A9600021816700F019F9CE
:1011C000F8BD0A0205D5420003D52046FFF797FE79
:1011D000F8BDC901FCD50028FADA2046FFF747FE22
:1011E000F8BD00000F0800000100001020010004FD
:1011F0002117000870B5040005D025468035A86881
:10120000002802D006E0012070BD00202871204691
:1012100000F026F82420A8602068016849084900E9
:101220000160A06A002802D0204600F0B7F92046ED
:1012300000F0B2FA0128E7D0206841680922D20202
:1012400091434160206881682A229143816020682F
:101250000168012211430160204600F005FA70BDCB
:1012600070B58CB0064614216846FEF760FF182161
:1012700005A8FEF75CFF26493068884245D1012069
:1012800000250590069505A8FFF722FA002801D051
:10129000FEF79EFF1F480268012189030A4302608E
:1012A000006808400B901B484038426B02210A43FB
:1012B0004263406B6A4608400B90C02023C20395EE
:1012C000694615480495FFF7BDF8154C1348206092
:1012D000332060601020E560A0606561A56180201A
:1012E000E5612061800120622046FFF747F8002871
:1012F00001D0FEF76DFFF467002211461B20A662A5
:10130000FFF7BCF91B20FFF7ADF90CB070BD000072
:101310000038014040100240000400500800024024
:10132000A8000020FFB5064604468036B06883B0AA
:101330000D46202802D0022007B0F0BD002D0CD0B1
:101340000598002809D00120A1680003814206D138
:101350002069002803D1E80701D00120ECE7002034
:1013600030612120B060FFF721F901902746403716
:101370000598B8820598F8820120A168000381428F
:1013800002D12069002802D00295002515E0002036
:10139000029012E000228021204600F0B1FA0028DD
:1013A00018D10298002819D0216800788862029824
:1013B000401C0290F88A401EF882F88A019B00289F
:1013C00006980090E6D100224021204600F098FACD
:1013D00000280AD02020B0600320ADE728882168CB
:1013E000C005C00D8862AD1CE4E72020B06000207D
:1013F000A2E77047FEE7000008B50848816B0122AC
:1014000011438163806B1040002200901146092037
:10141000FFF734F90920FFF725F908BD0010024055
:1014200030B587B014216846FEF781FE1048426B44
:1014300002210A434263426B0A400592426B042137
:101440000A434263406B0B4D08400C030590002299
:1014500021462846FFF7A4F80021012002910391BC
:101460000190009469462846FEF7ECFF07B030BDB6
:10147000001002400008005010B5184816490160DD
:10148000E1214902416000218160C1600161816107
:10149000C16101620C22416242618162FFF7AAFED2
:1014A000002801D0FEF794FE00210C48FFF704FD50
:1014B000002801D0FEF78CFE00210848FFF7D8FC79
:1014C000002801D0FEF784FE0448FFF7B1FC002895
:1014D00001D0FEF77DFE10BD003801401400002051
:1014E000FEE77047704710B5FFF766F810BD30B5DE
:1014F00091B034216846FEF71AFE002501200D95B3
:101500000E950F9540021095FFF7BCF80224E001FC
:10151000039000944020059008200A9080030B90CF
:101520000794000304950C90099508946846FFF70A
:101530007BFA002801D072B6FEE707200DA931C161
:1015400002210DA81095FFF769F9002801D072B6A5
:10155000FEE711B030BD7047F8B50446416E403427
:10156000002915D000688168806809014D0F0A4E76
:10157000400F3746315C083F385CC000FEF7BAFDCB
:101580006085785D715DC000FEF7B4FD2085F8BD13
:1015900001206085FAE70000C81A000810B5018D27
:1015A000090707D501684A680123DB039A43836B67
:1015B0001A434A60018DC90707D001684A680123B0
:1015C0005B049A43C36A1A434A60018D890707D5B1
:1015D00001684A6801231B049A43036B1A434A605B
:1015E000018D490707D501684A6801239B049A4386
:1015F000436B1A434A60018DC90607D5026891689A
:1016000001231B039943C36B19439160018D890624
:1016100007D501688A6801235B039A43036C1A4368
:101620008A60018D490612D503685A6801210905AF
:10163000446C8A4322435A60426C8A4207D1026852
:10164000516803235B059943836C19435160018DF5
:10165000090607D501684A680123DB04C06C9A4378
:1016600002434A6010BD0000FEB5054600268035E5
:1016700004462E61FEF79AFF01902068006820273B
:101680000007002817DA2548009000223904204678
:10169000019B00F035F900280DD0EFF310800121F7
:1016A00081F3108821680A6880239A430A6080F3D6
:1016B0001088AF6028E020680068400727D51748E9
:1016C00000900121002289052046019B00F018F9B5
:1016D00000281CD0EFF31080012181F310882168CD
:1016E0000A68FF2321339A430A6080F31088EFF3DE
:1016F0001080012181F3108821688A685208520005
:101700008A6080F31088EF602E710320FEBDAF6009
:10171000EF60E66626672E710020FEBDFFFFFF0129
:1017200010B5806A002201464031CA83CA82FFF7A1
:10173000E8FB10BD10B5EFF31081012282F3108891
:1017400002681368FF242134A343136081F31088D7
:10175000EFF31081012282F31088026893680D4C28
:101760002340936081F31088C16E01290BD1EFF300
:101770001081012282F31088026813681024A343A9
:10178000136081F3108820228C210A500021C16649
:10179000416710BDFEFFFFEFF8B504468068216980
:1017A000E269084361690025114322680843116812
:1017B0004B4B19400143116020684168032212031A
:1017C0009143E26811434160A169206A084321689E
:1017D0008A68444B1A4002438A602068C16A626A80
:1017E000090909011143C1623F492068884211D1AA
:1017F0003E4840698007800F0FD0012806D002289C
:1018000002D003280BD103E0022109E0042107E004
:10181000082105E03649884201D1002100E010216D
:101820000120E369C003334A334E344F834227D14A
:10183000002906D0022907D0042907D008293FD162
:1018400008E0FFF797F803E0104603E0FFF7A6F87B
:1018500000283AD0616A4900715AFEF74BFC616872
:1018600040004A088018FEF745FC01461039B9428D
:1018700026D82249491C01400007400F084322E0B6
:10188000002906D0022907D0042907D0082917D13A
:1018900008E0FFF76FF803E0104603E0FFF77EF87B
:1018A000002812D0616A4900715AFEF723FC616872
:1018B0004A088018FEF71EFC01461039B94201D9CA
:1018C000012502E080B22168C86020460121403035
:1018D0004185018500206067A0672846F8BD0000AB
:1018E000F369FFCFFFF4FF110038014040100240C0
:1018F000004400400024F400A81A0008EFFF000094
:10190000FFB581B005460E46044680350A9F32E099
:10191000781C30D0FEF74AFE0499401AB84218D815
:10192000002F16D020680168490724D5802E22D0C8
:10193000402E20D0C169C94309070CD4082606628D
:101940002046FFF7F7FE2E6100202871012005B028
:10195000F0BD0320FBE7C069C04300050BD40120A4
:101960002168C00208622046FFF7E4FE20202861BB
:1019700000202871EDE72068C1693046884305D012
:10198000002103988142C3D00020E0E70121F8E75D
:1019900010B50248FFF7B6FA10BD00001400002091
:1019A00010B5024A024900F036F810BD351A000899
:1019B000100000208307FF22DB0E9A408907090EE2
:1019C0009940002808DB830809489B001B18186809
:1019D00090430843186070470007000F08388308D9
:1019E00004489B001B18D86990430843D86170478E
:1019F00000E400E000ED00E002E008C8121F08C1AA
:101A0000002AFAD170477047002001E001C1121F7F
:101A1000002AFBD17047F8B516460F46044600254C
:101A200003E03946B047641C6D1C20780028F8D1CB
:101A30002846F8BD13B50A23012269460248FFF77C
:101A400071FC00981CBD000014000020FEF7BCFDD6
:101A5000FFF74DFDFFF7E4FCFFF7CEFCFFF70CFDB1
:101A60000126B6030B4CFF25F535002231462046F2
:101A7000FEF796FD2846FEF7D3FC012231462046AC
:101A8000FEF78EFD2846FEF7CBFC03A0FFF788FF8C
:101A9000EBE700000008005048656C6C6F7720573A
:101AA0006F726C6421000000010002000400060057
:101AB00008000A000C001000200040008000000117
:101AC00001010103070100000804020408010101EB
:101AD0000000000000000000000000000000000006
:101AE00000000000000000000000000000000000F6
:101AF00001000000020000000300000004000000DC
:101B000006000000070000000800000009000000B7
:101B100000000000000000000000000000000000C5
:101B200001000000020000000300000004000000AB
:101B3000501B00080000002014000000F8190008E5
:101B4000641B000814000020F4040000081A0008B8
:101B50000100000004000000000000000024F40068
:041B60000000000081
:04000005080000C12E
:00000001FF
