:020000040800F2
:10000000A8050020D9000008651700086916000837
:1000100000000000000000000000000000000000E0
:100020000000000000000000000000006917000848
:100030000000000000000000671700086B170008B0
:10004000EB00000800000000EB000008EB000008D7
:10005000EB000008EB000008EB000008EB000008D4
:10006000000000006901000879010008EB000008A9
:10007000EB000008EB000008EB00000800000000A7
:10008000EB0000080000000000000000EB0000088A
:1000900000000000EB000008EB000008EB00000887
:1000A000EB000008EB000008EB0000085D1E0008F4
:1000B000EB0000080000000000000000000000004D
:1000C0000448854600F03EF800480047D91F000864
:1000D000C046C046A80500200448804704480047A1
:1000E000FEE7FEE7FEE7FEE7FEE7FEE7DB170008B8
:1000F000C100000830B50B46014600202022012433
:1001000009E00D46D5409D4205D31D469540491B4B
:100110002546954040191546521E002DF1DC30BD94
:10012000D2B201E00270401C491EFBD2704700228F
:10013000F6E710B513460A4604461946FFF7F0FFE6
:10014000204610BD064C0125064E05E0E36807CCAD
:100150002B430C3C98471034B442F7D3FFF7B4FF5D
:100160001C2100083C21000810B5024800F0D6F818
:1001700010BD0000EC00002010B5024800F0CEF8E1
:1001800010BD00004801002010B50446006C09496C
:100190008008800040186064207814210838FFF738
:1001A000A9FF04498031A164C106C90E012088401D
:1001B000E06410BD000802400179084B8906890EF1
:1001C0008A00D2180265054A4432491E42658A07F0
:1001D000920F01219140816570470000FC080240A8
:1001E000F0B5846CC56C6560046D002C02D0446D64
:1001F000856D65600B4C6568066C1C273E400127C9
:10020000B7403D436560046863608368102B0368F2
:1002100003D099600068C260F0BD9A600068C16058
:10022000F0BD00000000024072B6FEE7F0B5002805
:1002300008D0014620314A79022A05D00422C2633F
:10024000002008710120F0BD026813680E24A3434A
:100250001360426C1468FF2301339C4314600268EE
:1002600014686408640014600C4A5568066C1C2409
:10027000264001242746B7403D435560826CC56C3B
:100280005560026D002A05D015689D431560826D8A
:10029000406D42604C7100200871F0BD00000240CA
:1002A000F8B50024024620325179022903D00421F6
:1002B000C16301242DE001680B680E25AB430B6080
:1002C00001680B685B085B000B60416C0B68FF25E5
:1002D0000135AB430B6010494D68066C1C231E4072
:1002E00001231F46B7403D434D60816CC56C4D6096
:1002F000016D002906D00E681D02AE430E60416DEF
:10030000856D4D60537100211171816B002900D002
:1003100088472046F8BD000000000240F0B42C4998
:100320000C6802681368056C1C273D400426AE402B
:10033000264211D05E070FD513689B0603D41468BC
:1003400004239C4314604B68046C04223C40A2408C
:1003500013434B60016B1CE00227AF400646274069
:100360002036002F19D09F0717D513689B0605D498
:1003700013680A24A3431360012272714B68046C52
:100380001C2214400222A24013434B600021317111
:10039000C16A00291AD0F0BC08470827AF4027429D
:1003A00014D01B0712D513680E24A34313604B68A7
:1003B000046C1C22144001221546A5402B434B60BF
:1003C000C263727100213171416BE2E7F0BC70478A
:1003D0000000024070B504003FD025482568142174
:1003E0002818FFF787FE800020640220264620366A
:1003F000707128681F4908402860E168A068626938
:100400000843216911430843A1690843E16908438E
:10041000216A084321680A68104308602046FFF7F4
:10042000B3FE0121A06889030025884200D16560E0
:100430002079616C8006800E0860A06CE16C4160E0
:100440006068401E03280AD82046FFF7B5FE206DDD
:100450000560606DA16D416004E0012070BD2565FF
:100460006565A565E563012070713571002070BD7B
:10047000F8FFFDBF0F80FFFFF8B504468C46203023
:100480000179002501290BD0012606714179002749
:10049000012907D08021E163077101252846F8BDB5
:1004A0000220F8BD02214171E76320680168490814
:1004B0004900016061462046FFF792FE206B00284C
:1004C0002068016801D00E2205E0042291430160FA
:1004D000206801680A2211430160606C0168CA0348
:1004E000074902D502680A430260206D002802D045
:1004F00002680A4302602068016831430160CDE769
:100500000001000070B5044600F0C2F80546601C0A
:1005100002D004480078241800F0BAF8401BA0422A
:10052000FAD370BD00000020F0B5002303249AE048
:100530002A4601259D402A407ED00E79B607B60F87
:10054000012E01D0022E16D186682746B4465E00E1
:10055000B646B7406646BE43B446CF687646B74017
:100560006646374387604668AE430D79ED06ED0F6A
:100570009D40354345600D79ED43AD0708D0C56812
:100580005F002646BE40B5438E68BE402E43C6601F
:100590000D79AD07AD0F022D0ED1DD08AD002D1880
:1005A000AC462D6A5E07F60E0F27B740BD430F69B4
:1005B000B7402F4365462F6205685F002646BE4060
:1005C000B5430E79B607B60FBE402E4306604D68A0
:1005D000AD03AD0F46D09E08264DB6007519AC464A
:1005E0002D6E9E07F60E0F27B740BD4305273F0728
:1005F000B84201D100270FE01F4FB84201D10127B7
:100600000AE01E4FB84201D1022705E01C4FB84254
:1006100001D1032700E00527B7402F43154D66465B
:1006200037662D684E689543F60200D51543114F85
:100630003D607D68954300E014E04E68B60200D549
:1006400015437D600B4D80356E684F689643BF0340
:1006500000D516436E602E684F689643FF0300D5A1
:1006600016432E605B1C0A681546DA4000D05FE72F
:10067000F0BD0000001802400004005000080050C7
:10068000000C0050002A01D08161704781627047E0
:10069000014880687047000000000020024881681F
:1006A00002788918816070470000002010B5084862
:1006B00000240168821511430160032000F00AF84C
:1006C000002801D0012401E000F028F8204610BDE8
:1006D0000020024070B50F4E0024317805460029F5
:1006E00015D07D20C000FFF705FD01460A480068CF
:1006F000FFF700FD00F0F6FB002808D1042D06D21C
:1007000000222946401E00F02BF8756000E001240D
:10071000204670BD000000200C00002008B50948EC
:1007200001680122114301600068104000900548F3
:100730004038C26B01040A43C263C06B084000909A
:1007400008BD000040100240002805DBC106C90EAC
:1007500001208840014908607047000000E100E086
:1007600010B501F093FB10BD10B50F4C21680322AA
:100770005202914301432160C11FFF39FA390ED162
:100780000A480621006848430949FFF7B3FC401CAA
:1007900002E0002805D0401E61694905F9D4002017
:1007A00010BD032010BD0000007000400C000020B0
:1007B00040420F00F8B50446006800264D4D800306
:1007C00058D54C4800274038C06BC00009D4494870
:1007D0004038C26B01040A43C263C06B0840012762
:1007E000009045480168821511430160FFF750FFF2
:1007F000009005E0FFF74CFF0099401A022825D829
:100800003D480068C005F5D5E869032109020840A4
:100810000FD0616981420CD0E86903210902EA69BD
:100820008843012109040A43EA61EA698A43EA61CB
:10083000E861C0070FD0FFF72BFF009008E0FFF73B
:1008400027FF0099411A2D48814201D9032609E06A
:10085000E8698007F3D5E8690321090288436169E3
:100860000843E861002F05D022484038C26B0104DC
:100870008A43C2632078C00705D068696168800830
:100880008000084368612078800606D568690321E6
:1008900009038843A168084368612088400411D592
:1008A0006869216980008008084368610121206926
:1008B0008907884206D10F484038C16801221204D6
:1008C0001143C1602088000512D56869032189039E
:1008D0008843E168084368610121E0688903884230
:1008E00006D104484038C168012212041143C16096
:1008F0003046F8BD401002400070004088130000F0
:10090000F8B50F46060043D04D4D28684007400F0C
:10091000B84213D22868C008C00038432860FFF7E7
:10092000B7FE044605E0FFF7B3FE011B45488142D0
:1009300061D828684007400FB842F4D13068424C73
:1009400081070DD5400704D5A06807210903084396
:10095000A060A0680F2109028843B1680843A06025
:100960003078C00732D0706801280AD002280BD036
:1009700000280FD03449403103280ED0C9698907B7
:1009800004E02168890301E021688901002906DB70
:100990000120F8BD21684905F8E7096AEFE7A16879
:1009A000C908C9000143A160FFF772FE009006E08C
:1009B000FFF76EFE0099411A224881421BD8A068B9
:1009C000382108407168C9008842F1D12868400781
:1009D000400FB84217D91A480168C908C9003943FD
:1009E0000160FFF755FE054607E0FFF751FE411B8A
:1009F0001448814201D90320F8BD1148006840071E
:100A0000400FB842F1D13078400706D5A0680721E1
:100A100009038843F1680843A06000F031F8A16839
:100A20003C2289091140094A515CC906C90EC840D7
:100A30000749086007480068FFF74CFEF8BD000052
:100A4000002002408813000000100240BC20000873
:100A50000C0000200400002006480749006889684F
:100A6000064A4904490F8900515CC906C90EC840AD
:100A7000704700000C00002000100240FC2000081D
:100A800010B5204CA068204A8006400F16D0A06800
:100A90008006410F501001290FD0A1688906490F27
:100AA000022912D0A0688006400F042823D0A06835
:100AB0008006400F032821D0002010BD20680121AE
:100AC0008004400F8140104612E0E1688B07E16826
:100AD0009B0F4906490F491C032B00D01046FFF716
:100AE00009FBE1684904490E4843E168490F491C84
:100AF000FFF700FB10BD0120C00310BD7D200002E8
:100B000010BD0000001002400024F400F8B50400FD
:100B10007ED020783827C007E94D002846D0A86845
:100B2000E96838408907890F102802D008280BD0BF
:100B300001E0032908D001206268000482420AD142
:100B400029680143296015E0286880032ED5606874
:100B50000028DDD02AE0052301211B0489049A42E4
:100B60002A6802D10A432A60EAE782432A60286899
:100B700088432860606800280CD0FFF789FD06468E
:100B800004E0FFF785FD801B642873D82868800384
:100B9000F7D50BE0FFF77CFD064604E0FFF778FD94
:100BA000801B6428F1D828688003F7D42078800758
:100BB00069D5A868E96838408A070721920FC902F9
:100BC000102802D0002813D001E0022A10D0E068DB
:100BD000002846D02868884321690843286028688F
:100BE000FF21013108432860FFF752FD06462CE043
:100BF0002A68520502D5E268002A89D06A687F23F4
:100C00001B029A4363691B021A436A60002800E0D2
:100C10008DE00ED128688843216908432860286840
:100C200001218004400F8140A648FFF763FAA649DE
:100C30000860A6480068FFF74DFD002877D122E044
:100C4000FFF726FD801B02289FD828684005F7D5AE
:100C500068687F2109028843616909020843686066
:100C600011E02968FF20013081432960FFF710FD62
:100C7000064605E098E0FFF70BFD801B022884D8AC
:100C800028684005F7D42078914E00072ED5A86833
:100C90008006400F03280AD0A0690028306A16D0C9
:100CA000012108433062FFF7F3FC07460BE0306A8E
:100CB00080071BD5A06900289FD017E0FFF7E8FC4C
:100CC000C01B022870D8306A8007F7D50EE04008B4
:100CD00040003062FFF7DCFC074604E0FFF7D8FC79
:100CE000C01B022860D8306A8007F7D420784007FC
:100CF0006CD5A86800278006400F042818D0E86B40
:100D0000C00008D4E96B012000070143E963E96BE7
:100D10000140012700916F480168C90519D4016895
:100D2000821511430160FFF7B3FC00900DE083E0F2
:100D3000F06980074AD5A06800287DD046E0FFF71B
:100D4000A7FC0099401A02282ED862480068C00506
:100D5000F5D5A168012910D004200529F16911D029
:100D600049084900F161F1698143F161A0680028F7
:100D700016D0FFF78DFC00900EE0F06901210843CA
:100D8000F061F3E70143F161F7E7FFF781FC0099B8
:100D9000411A5148814265D8F0698007F5D50EE0C7
:100DA000FFF776FC009007E05CE0FFF771FC00992C
:100DB000411A4948814255D8F0698007F5D4002F7F
:100DC00004D0E96B012000078143E963E069002852
:100DD00073D0A9688906490F02294DD0012636062D
:100DE0000228286805D0B0432860FFF751FC04466C
:100DF0003AE0B0432860FFF74BFC074604E0FFF7FA
:100E000047FCC01B02282DD828688001F7D4616AEE
:100E1000206AA26A0843E16A120211430843216B67
:100E20000843E9682D4A11400843E86028683043C8
:100E30002860E868012100E03DE009070843E86018
:100E4000FFF726FC044604E0FFF722FC001B022803
:100E500008D828688001F7D52FE0FFF719FC001BA0
:100E6000022801D90320F8BD28688001F5D4E8687C
:100E70001B490840E86020E00128F4D0E868226AB5
:100E80008107890F914216D17021626A0140914217
:100E900011D17F21A26A09020140120291420AD1B6
:100EA0001F214904E26A0140914204D1400F216BA5
:100EB0004007884201D00120F8BD0020F8BD0000A5
:100EC000001002400024F4000C0000200400002068
:100ED0004010024000700040881300008C80C11F49
:100EE000FCFFFEEF094910B5401E884201D90120E0
:100EF00010BD074C60610321081F00F0C7FF0020F0
:100F0000A06107202061002010BD0000FFFFFF004E
:100F100000E000E010B5014680310A79012A15D0C1
:100F200001220A7124228A60026813681468640826
:100F30006400146001225207934300224266006855
:100F40000360202088600A71104610BD022010BD89
:100F500010B504468030C068202801D0022010BDA2
:100F600000290BD0002A09D00123A0681B03984256
:100F700006D12069002803D1C80701D0012010BD87
:100F80000120E06600202067204600F0C9FE010035
:100F900003D1E06E012802D00121084610BD20686F
:100FA00010220262EFF31080012383F3108823687C
:100FB0001C6814431C6080F31088EEE770B504468B
:100FC0000D460A460A490B4800F0F6FA09488442E1
:100FD0000CD1074908A000F049FF29460448FFF753
:100FE000A6F8322202490348FFF7B2FF70BD0000A5
:100FF000240000205800002025730000704770B5C1
:10100000044605468034207901281AD00120207139
:101010002420A06028680668026852085200026016
:101020002868826807235B069A430A438260284641
:1010300000F0D4FB286806602020A060002020710A
:1010400070BD022070BD70B504460546803420791D
:10105000012819D0012020712420A060286806688A
:10106000026852085200026028688268D200D208E2
:101070000A438260284600F0B1FB28680660202001
:10108000A0600020207170BD022070BD70477047C5
:1010900070470000F8B503680446D96918689A6873
:1010A000B44D0E462E4025468035002E75D0B24EEA
:1010B000B24F1640074037436ED0CF0706D0C70562
:1010C00004D501271F622B693B432B618B0708D591
:1010D000D30706D0276802233B622B6904273B43D2
:1010E0002B614B0708D5D30706D0276804233B6242
:1010F0002B6902273B432B610B0709D520230340B3
:10110000334305D02668082333622E691E432E61BF
:101110000B0509D5430107D501232668DB0233629D
:101120002B69202633432B612B69002B42D0890683
:101130000AD520210840C9050A40104304D0616F38
:10114000002901D020468847286921688968490616
:1011500002D42821084232D0204600F0DDFC21686C
:101160008868400627D5EFF31080012282F31088AB
:101170008B68402293438B6080F310882868002896
:1011800019D07F4981632868FFF78AF8002811D0B9
:101190002868816B0DE000E017E08E0615D5012769
:1011A00020263F07064017403E430ED0616FB5E052
:1011B00020468847F8BD2046FFF76AFFF8BD204665
:1011C000FFF766FF00202861F8BDE66E012E7DD195
:1011D000CE067BD5C60679D510221A622368986898
:1011E000264640064036002849DA296808684068E3
:1011F0000004000CE8D0B78B8742E5D9F08308687B
:101200000068800634D4EFF31080012181F3108848
:1012100019681701B943196080F31088EFF3108043
:10122000012181F3108821688B685B085B008B606B
:1012300080F31088EFF31080012181F3108821687A
:101240008B684027BB438B6080F310882020E860C8
:101250000020E066EFF31080012181F310882168FF
:101260000B6893430B6080F310882868FEF7DEFF5D
:1012700002202067B08BF18B401A81B235E0B08B31
:10128000F18B401A81B2F08B00289DD000299BD0B1
:10129000EFF31080012686F310881E68FF272137A0
:1012A000BE431E6080F31088EFF31080012383F3A8
:1012B000108823689E68304FFF433E409E6080F355
:1012C00010882020E8600020E06600E011E0606700
:1012D000EFF31080012383F3108823681D68954382
:1012E0001D6080F31088022020672046FFF766FE0D
:1012F000F8BDCE0208D5560206D5012000051862B9
:101300002046FFF7C4FEF8BD0E060BD50127802648
:10131000FF0506403A40164304D0A16F002900D0D3
:1013200046E7F8BD4A0614D5420612D52046EFF32B
:101330001081012282F310881A684024A2431A60A7
:1013400081F310882021A9600021816700F08AF9CB
:10135000F8BD0A0205D5420003D52046FFF796FEE8
:10136000F8BDC901FCD50028FADA2046FFF746FE91
:10137000F8BD00000F08000001000010200100046B
:10138000A519000870B5040005D025468035A86869
:10139000002802D006E0012070BD00202871204600
:1013A00000F026F82420A860206801684908490058
:1013B0000160A06A002802D0204600F031FA2046E1
:1013C00000F0FAFB0128E7D0206841680922D20228
:1013D00091434160206881682A229143816020689E
:1013E0000168012211430160204600F07FFA70BDC0
:1013F000F0B58DB0064614216846FEF798FE182118
:1014000005A8FEF794FE3249306888425ED101207B
:1014100000240590069405A8FFF7CCF9002801D018
:10142000FEF702FF2B480268012189030A4302608C
:10143000006808400B9027484038426B02210A435D
:101440004263406B6A4608400B90C02013C203946D
:10145000694621480494FFF767F8214D1F4828602A
:10146000332068601020EC60A86080206C61AC6163
:1014700087012F62EC6128612846FEF7ABFF002848
:1014800001D0FEF7D1FEF567AE621448144D14305A
:101490005C352860AC603220EC6068606C61AC61E7
:1014A0002F628020EC6128612846FEF793FF002818
:1014B00001D0FEF7B9FE80208551002211461B2085
:1014C000AE62FFF74DF91B20FFF73EF90DB0F0BDFE
:1014D0000038014040100240000400500800024063
:1014E000EC00002070477047FFB506460446803682
:1014F000B06883B00D46202802D0022007B0F0BDAE
:10150000002D0CD00598002809D00120A168000307
:10151000814206D12069002803D1E80701D00120CB
:10152000ECE7002030612120B060FFF7B1F80190B6
:10153000274640370598B8820598F8820120A168AF
:101540000003814202D12069002802D002950025C3
:1015500015E00020029012E000228021204600F0D9
:1015600035FC002818D10298002819D0216800788D
:1015700088620298401C0290F88A401EF882F88A1D
:10158000019B002806980090E6D1002240212046C9
:1015900000F01CFC00280AD02020B0600320ADE73A
:1015A00028882168C005C00D8862AD1CE4E72020B2
:1015B000B0600020A2E7000070B505460446803503
:1015C000A868202801D0022070BD00290BD0002A75
:1015D00009D00123A0681B03984206D12069002886
:1015E00003D1C80701D0012070BD204640302165DD
:1015F0008282C282002028612121A960E16F002936
:1016000018D0154BCB62E36F14491963E36F14498B
:101610005963E16F134688632668216D324628328C
:10162000E06FFEF729FF002804D010202861202059
:10163000A860D8E7216840200862EFF310800121FC
:1016400081F3108821688A6880231A438A6080F3B6
:101650001088002070BD0000C31A00080F1B00088E
:10166000B919000870477047FEE7000008B50C483C
:10167000816B012211438163806B10400022009036
:1016800011460920FFF76CF80920FFF75DF80022EA
:1016900011460A20FFF764F80A20FFF755F808BD45
:1016A0000010024030B587B014216846FEF73FFDB8
:1016B0001048426B02210A434263426B0A40059282
:1016C000426B04210A434263406B0B4D08400C03FC
:1016D0000590002221462846FEF7D4FF0021012074
:1016E000029103910190009469462846FEF71CFF81
:1016F00007B030BD001002400008005010B5184877
:1017000016490160E1214902416000218160C16008
:1017100001618161C16101620C22416242618162A9
:10172000FFF730FE002801D0FEF77EFD00210C48B7
:10173000FFF789FC002801D0FEF776FD002108485C
:10174000FFF75DFC002801D0FEF76EFD0448FFF7AF
:10175000E1FB002801D0FEF767FD10BD0038014015
:1017600058000020FEE77047704710B5FEF796FF5F
:1017700010BD30B591B034216846FEF7D8FC002585
:1017800001200D950E950F9540021095FEF7ECFF88
:101790000224E001039000944020059008200A9064
:1017A00080030B900794000304950C90099508940E
:1017B0006846FFF7ABF9002801D072B6FEE70720B4
:1017C0000DA931C102210DA81095FFF799F8002845
:1017D00001D072B6FEE711B030BD7047F8B50446CF
:1017E000416E4034002915D0006881688068090185
:1017F0004D0F0A4E400F3746315C083F385CC00041
:10180000FEF778FC6085785D715DC000FEF772FCC4
:101810002085F8BD01206085FAE70000B4200008AB
:1018200010B5018D090707D501684A680123DB035C
:101830009A43836B1A434A60018DC90707D0016838
:101840004A6801235B049A43C36A1A434A60018DC4
:10185000890707D501684A6801231B049A43036B73
:101860001A434A60018D490707D501684A68012378
:101870009B049A43436B1A434A60018DC90607D5FE
:101880000268916801231B039943C36B194391605C
:10189000018D890607D501688A6801235B039A4395
:1018A000036C1A438A60018D490612D503685A6891
:1018B00001210905446C8A4322435A60426C8A42E2
:1018C00007D10268516803235B059943836C194370
:1018D0005160018D090607D501684A680123DB04C0
:1018E000C06C9A4302434A6010BD0000FEB5054635
:1018F0000026803504462E61FEF7CAFE019020685E
:10190000006820270007002817DA254800900022E9
:1019100039042046019B00F059FA00280DD0EFF35E
:101920001080012181F3108821680A6880239A437E
:101930000A6080F31088AF6028E0206800684007E4
:1019400027D5174800900121002289052046019BD8
:1019500000F03CFA00281CD0EFF31080012181F345
:10196000108821680A68FF2321339A430A6080F3B4
:101970001088EFF31080012181F3108821688A68B4
:10198000520852008A6080F31088EF602E710320A5
:10199000FEBDAF60EF60E66626672E710020FEBDDB
:1019A000FFFFFF0110B5806A002201464031CA8363
:1019B000CA82FFF76DFB10BDF8B5846A20468030FF
:1019C00081680546C66820688068002700060028F0
:1019D00006DA212904D156200753204600F0CEF81C
:1019E00020688068400606D5222E04D15E20075369
:1019F000204600F091F8286910210843286120460C
:101A0000FFF746FBF8BD70B501460968806A0968B2
:101A100000228906002938DB5E210A52EFF310818B
:101A2000012383F3108803681C68FF250135AC434C
:101A30001C6081F31088EFF31081012383F3108879
:101A400003689C68640864009C6081F31088EFF36D
:101A50001081012383F3108803689C684025AC4300
:101A60009C6081F3108820238C210B50C16E0129CA
:101A70000BD1EFF31081012383F3108803681C68F6
:101A80001025AC431C6081F310880267C16E0129E8
:101A900002D0FFF727FD70BD5C21095AFFF78EFACF
:101AA00070BD10B5806A01210167C16E012902D0A5
:101AB000FFF719FD10BD5C21095A4908FFF77EFAAE
:101AC00010BD10B501460968806A096889061BD4F3
:101AD000002256210A52EFF31081012282F310886E
:101AE000026893688024A343936081F31088EFF326
:101AF0001081012282F310880068026840231A4393
:101B0000026081F3108810BDFFF7ACFD10BD10B569
:101B1000806AFFF7A8FD10BD10B5EFF31081012218
:101B200082F3108802681368FF242134A3431360F2
:101B300081F31088EFF31081012282F3108802688C
:101B400093680D4C2340936081F31088C16E012986
:101B50000BD1EFF31081012282F310880268136821
:101B60001024A343136081F3108820228C210A5093
:101B70000021C166416710BDFEFFFFEF10B5EFF316
:101B80001081012282F3108802681368C024A343E5
:101B9000136081F31088EFF31081012282F3108823
:101BA000026893680124E405A343936081F31088DD
:101BB00020218030816010BDF8B50446806821691D
:101BC000E2690843616900251143226808431168EE
:101BD0004B4B1940014311602068416803221203F6
:101BE0009143E26811434160A169206A084321687A
:101BF0008A68444B1A4002438A602068C16A626A5C
:101C0000090909011143C1623F492068884211D185
:101C10003E4840698007800F0FD0012806D0022877
:101C200002D003280BD103E0022109E0042107E0E0
:101C3000082105E03649884201D1002100E0102149
:101C40000120E369C003334A334E344F834227D126
:101C5000002906D0022907D0042907D008293FD13E
:101C600008E0FEF7F9FE03E0104603E0FEF708FF88
:101C700000283AD0616A4900715AFEF73BFA616860
:101C800040004A088018FEF735FA01461039B9427B
:101C900026D82249491C01400007400F084322E092
:101CA000002906D0022907D0042907D0082917D116
:101CB00008E0FEF7D1FE03E0104603E0FEF7E0FE89
:101CC000002812D0616A4900715AFEF713FA616860
:101CD0004A088018FEF70EFA01461039B94201D9B8
:101CE000012502E080B22168C86020460121403011
:101CF0004185018500206067A0672846F8BD000087
:101D0000F369FFCFFFF4FF1100380140401002409B
:101D1000004400400024F40094200008EFFF00007D
:101D200070B50446816540308283002025468035A9
:101D300028612221E9602968002919D0204BCB6253
:101D40002B68204919632B681F495963296813467A
:101D50008863A66D2168324624312868FEF78CFB23
:101D6000002805D0102028612020E860012070BDE7
:101D7000206900280CD0EFF31080012181F3108836
:101D800021680A68FF2301331A430A6080F3108830
:101D9000EFF31080012181F31088226893680B43D0
:101DA000936080F31088EFF3108081F3108821682E
:101DB0008A6840231A438A6080F31088002070BD2F
:101DC000071A0008A31A0008B9190008FFB581B066
:101DD00005460E46044680350A9F32E0781C30D016
:101DE000FEF756FC0499401AB84218D8002F16D0B6
:101DF00020680168490724D5802E22D0402E20D0AB
:101E0000C169C94309070CD4082606622046FFF7BA
:101E100083FE2E6100202871012005B0F0BD032053
:101E2000FBE7C069C04300050BD401202168C00254
:101E300008622046FFF770FE2020286100202871EC
:101E4000EDE72068C1693046884305D0002103983A
:101E50008142C3D00020E0E70121F8E710B5024835
:101E6000FFF718F910BD0000580000200FB410B59E
:101E700003A9044B044A029800F039F810BC08BCCE
:101E800004B01847C11F0008200000208307FF226C
:101E9000DB0E9A408907090E9940002808DB830869
:101EA00009489B001B181868904308431860704746
:101EB0000007000F0838830804489B001B18D869E6
:101EC00090430843D861704700E400E000ED00E073
:101ED00002E008C8121F08C1002AFAD170477047F3
:101EE000002001E001C1121F002AFBD17047FFB59D
:101EF00081B00546002706E025280AD0049A0399F8
:101F000090476D1C7F1C28780028F5D1384605B015
:101F1000F0BD002269786D1C10462E2913D1697816
:101F200004226D1C2A2909D102996D1C01C9029154
:101F300009E00A235843303808186D1C29780B46ED
:101F4000303B092BF5D92B78002BDFD0632B07D042
:101F5000732B10D0049A1846039990477F1C2DE0EC
:101F600002996C460B782370091D02910021617063
:101F70006E46012104E0029940C902910021C94343
:101F800052070AD5002400E0641C84420DDA8C421A
:101F9000FADB325D002AF7D107E0002400E0641C80
:101FA0008C42FCDB305D0028F9D13F1904E0307829
:101FB000049A761C03999047641EF8D26D1CA2E720
:101FC00013B50A23012269460248FFF78DFA0098EB
:101FD0001CBD000058000020FEF768FBFFF7C9FB9E
:101FE000FFF760FBFFF742FBFFF788FB00F00CF800
:101FF000322203490348FEF7ABFF00F00BF8FCE781
:10200000240000205800002001490120087070477A
:1020100010000020F8B50C4D00242E1F0FE0FEF735
:1020200037FB22460C214A4351198F684B68DB1954
:10203000834202D88860A8588047641CE4B2307894
:102040008442ECD3F8BD00001400002070B50124D8
:102050000B4DA403002221462846FEF713FBFF2662
:10206000F5363046FEF74EFA012221462846FEF7A5
:1020700009FB3046FEF746FA02A0FFF7F7FE70BDF7
:102080000008005048656C6C6F7720576F726C6465
:1020900021000000010002000400060008000A0000
:1020A0000C0010002000400080000001010101032D
:1020B00007010000080402040801010100000000FB
:1020C0000000000000000000000000000000000010
:1020D00000000000000000000000000001000000FF
:1020E00002000000030000000400000006000000E1
:1020F00007000000080000000900000000000000C8
:1021000000000000000000000000000001000000CE
:102110000200000003000000040000003C21000851
:102120000000002024000000D01E000860210008EC
:102130002400002084050000E01E000801000000CB
:1021400004000000000000000024F4000000000073
:102150004D20000801000000000000000000000009
:04000005080000C12E
:00000001FF
